{
  "_format": "hh-sol-artifact-1",
  "contractName": "ProofOfExecution",
  "sourceName": "contracts/ProofOfExecution.sol",
  "abi": [
    {
      "inputs": [
        {
          "internalType": "string",
          "name": "commitmentId",
          "type": "string"
        }
      ],
      "name": "getProof",
      "outputs": [
        {
          "internalType": "string",
          "name": "",
          "type": "string"
        },
        {
          "internalType": "uint256",
          "name": "",
          "type": "uint256"
        }
      ],
      "stateMutability": "view",
      "type": "function"
    },
    {
      "inputs": [
        {
          "internalType": "string",
          "name": "commitmentId",
          "type": "string"
        },
        {
          "internalType": "string",
          "name": "poeHash",
          "type": "string"
        }
      ],
      "name": "storeProof",
      "outputs": [],
      "stateMutability": "nonpayable",
      "type": "function"
    }
  ],
  "bytecode": "0x6080604052348015600f57600080fd5b506109e58061001f6000396000f3fe608060405234801561001057600080fd5b50600436106100365760003560e01c80633a499d351461003b578063d57763a114610057575b600080fd5b6100556004803603810190610050919061041d565b610088565b005b610071600480360381019061006c9190610495565b61017a565b60405161007f929190610576565b60405180910390f35b60008260405161009891906105e2565b908152602001604051809103902060020160009054906101000a900460ff16156100f7576040517f08c379a00000000000000000000000000000000000000000000000000000000081526004016100ee90610645565b60405180910390fd5b60405180606001604052808281526020014281526020016001151581525060008360405161012591906105e2565b908152602001604051809103902060008201518160000190816101489190610871565b506020820151816001015560408201518160020160006101000a81548160ff0219169083151502179055509050505050565b60606000808360405161018d91906105e2565b908152602001604051809103902060020160009054906101000a900460ff166101eb576040517f08c379a00000000000000000000000000000000000000000000000000000000081526004016101e29061098f565b60405180910390fd5b6000836040516101fb91906105e2565b908152602001604051809103902060000160008460405161021c91906105e2565b90815260200160405180910390206001015481805461023a90610694565b80601f016020809104026020016040519081016040528092919081815260200182805461026690610694565b80156102b35780601f10610288576101008083540402835291602001916102b3565b820191906000526020600020905b81548152906001019060200180831161029657829003601f168201915b5050505050915091509150915091565b6000604051905090565b600080fd5b600080fd5b600080fd5b600080fd5b6000601f19601f8301169050919050565b7f4e487b7100000000000000000000000000000000000000000000000000000000600052604160045260246000fd5b61032a826102e1565b810181811067ffffffffffffffff82111715610349576103486102f2565b5b80604052505050565b600061035c6102c3565b90506103688282610321565b919050565b600067ffffffffffffffff821115610388576103876102f2565b5b610391826102e1565b9050602081019050919050565b82818337600083830152505050565b60006103c06103bb8461036d565b610352565b9050828152602081018484840111156103dc576103db6102dc565b5b6103e784828561039e565b509392505050565b600082601f830112610404576104036102d7565b5b81356104148482602086016103ad565b91505092915050565b60008060408385031215610434576104336102cd565b5b600083013567ffffffffffffffff811115610452576104516102d2565b5b61045e858286016103ef565b925050602083013567ffffffffffffffff81111561047f5761047e6102d2565b5b61048b858286016103ef565b9150509250929050565b6000602082840312156104ab576104aa6102cd565b5b600082013567ffffffffffffffff8111156104c9576104c86102d2565b5b6104d5848285016103ef565b91505092915050565b600081519050919050565b600082825260208201905092915050565b60005b838110156105185780820151818401526020810190506104fd565b60008484015250505050565b600061052f826104de565b61053981856104e9565b93506105498185602086016104fa565b610552816102e1565b840191505092915050565b6000819050919050565b6105708161055d565b82525050565b600060408201905081810360008301526105908185610524565b905061059f6020830184610567565b9392505050565b600081905092915050565b60006105bc826104de565b6105c681856105a6565b93506105d68185602086016104fa565b80840191505092915050565b60006105ee82846105b1565b915081905092915050565b7f50726f6f6620616c726561647920657869737473000000000000000000000000600082015250565b600061062f6014836104e9565b915061063a826105f9565b602082019050919050565b6000602082019050818103600083015261065e81610622565b9050919050565b7f4e487b7100000000000000000000000000000000000000000000000000000000600052602260045260246000fd5b600060028204905060018216806106ac57607f821691505b6020821081036106bf576106be610665565b5b50919050565b60008190508160005260206000209050919050565b60006020601f8301049050919050565b600082821b905092915050565b6000600883026107277fffffffffffffffffffffffffffffffffffffffffffffffffffffffffffffffff826106ea565b61073186836106ea565b95508019841693508086168417925050509392505050565b6000819050919050565b600061076e6107696107648461055d565b610749565b61055d565b9050919050565b6000819050919050565b61078883610753565b61079c61079482610775565b8484546106f7565b825550505050565b600090565b6107b16107a4565b6107bc81848461077f565b505050565b5b818110156107e0576107d56000826107a9565b6001810190506107c2565b5050565b601f821115610825576107f6816106c5565b6107ff846106da565b8101602085101561080e578190505b61082261081a856106da565b8301826107c1565b50505b505050565b600082821c905092915050565b60006108486000198460080261082a565b1980831691505092915050565b60006108618383610837565b9150826002028217905092915050565b61087a826104de565b67ffffffffffffffff811115610893576108926102f2565b5b61089d8254610694565b6108a88282856107e4565b600060209050601f8311600181146108db57600084156108c9578287015190505b6108d38582610855565b86555061093b565b601f1984166108e9866106c5565b60005b82811015610911578489015182556001820191506020850194506020810190506108ec565b8683101561092e578489015161092a601f891682610837565b8355505b6001600288020188555050505b505050505050565b7f50726f6f6620646f6573206e6f74206578697374000000000000000000000000600082015250565b60006109796014836104e9565b915061098482610943565b602082019050919050565b600060208201905081810360008301526109a88161096c565b905091905056fea26469706673582212207318e647124d2418ccc5951dba4044ddcb23d068e0b060dbea0edf84aa0d786364736f6c634300081c0033",
  "linkReferences": {},
  "deployedLinkReferences": {}
}